:020000040800F2
:1000000000000120751A0008C51A0008C51A00086A
:10001000C51A0008C51A0008C51A0008000000002B
:10002000000000000000000000000000C51A0008E9
:10003000C51A000800000000C51A0008F9130008DE
:1000400000000000C51A0008C51A0008C51A0008FB
:10005000C51A0008C51A0008C51A0008C51A000804
:10006000C51A0008C51A0008C51A000800000000DB
:100070000000000000000000000000000000000080
:100080000000000000000000A517000800000000AC
:10009000000000000000000000000000C51A000879
:1000A000C51A0008C51A0008C51A0008C51A0008B4
:1000B000C51A0008C51A000800000000C51A00088B
:1000C000C51A0008C51A0008C51A0008C51A000894
:1000D000C51A000800000000000000000000000039
:1000E000C51A0008C51A0008C51A0008000000005B
:1000F0000000000000000000000000000000000000
:1001000000000000C51A000800000000C51A000821
:1001100000000000000000000000000000000000DF
:1001200000000000000000000000000000000000CF
:1001300000000000000000000000000000000000BF
:10014000000000000000000000000000C51A0008C8
:10015000000000000000000000000000000000009F
:10016000C51A0008C51A00080000000000000000C1
:10017000000000000000000000000000000000007F
:1001800000000000C51A0008000000000000000088
:04019000C51A000884
:1001C00010B5054C237833B9044B13B10448AFF391
:1001D00000800123237010BDC00900200000000032
:1001E000505B000808B5034B1BB103490348AFF34C
:1001F000008008BD00000000C4090020505B00081A
:1002000001F0FF01102A2BDB10F0070F08D010F8C7
:10021000013B013A8B422DD010F0070F42B3F6D1CB
:10022000F0B441EA012141EA014122F007047FF0E4
:1002300000070023F0E80256083C85EA010586EA3B
:10024000010685FA47F5A3FA87F586FA47F6A5FA77
:1002500087F68EB9EED1F0BC01F0FF0102F0070283
:1002600032B110F8013B013A83EA010313B1F8D12E
:100270000020704701387047002D06BF354603380F
:10028000073815F0010F07D1013015F4807F02BF48
:10029000013015F4C03F0130F0BC0138704700BF99
:1002A000844641EA000313F003036DD1403A41D381
:1002B00051F8043B40F8043B51F8043B40F8043B40
:1002C00051F8043B40F8043B51F8043B40F8043B30
:1002D00051F8043B40F8043B51F8043B40F8043B20
:1002E00051F8043B40F8043B51F8043B40F8043B10
:1002F00051F8043B40F8043B51F8043B40F8043B00
:1003000051F8043B40F8043B51F8043B40F8043BEF
:1003100051F8043B40F8043B51F8043B40F8043BDF
:1003200051F8043B40F8043B51F8043B40F8043BCF
:10033000403ABDD2303211D351F8043B40F8043B6F
:1003400051F8043B40F8043B51F8043B40F8043BAF
:1003500051F8043B40F8043B103AEDD20C3205D37F
:1003600051F8043B40F8043B043AF9D2043208D077
:10037000D2071CBF11F8013B00F8013B01D30B88E9
:1003800003806046704700BF082A13D38B078DD0C7
:1003900010F003038AD0C3F10403D21ADB071CBF99
:1003A00011F8013B00F8013B80D331F8023B20F803
:1003B000023B7BE7043AD9D3013A11F8013B00F83C
:1003C000013BF9D20B7803704B7843708B788370C4
:1003D00060467047000000000000000000000000C0
:1003E000000000000000000000000000000000000D
:1003F00000000000000000000000000000000000FD
:1004000090F800F06DE9024520F007016FF0000C54
:1004100010F0070491F820F040F049804FF00004FC
:100420006FF00700D1E9002391F840F000F10800D7
:1004300082FA4CF2A4FA8CF283FA4CF3A2FA8CF30F
:100440004BBBD1E9022382FA4CF200F10800A4FA76
:100450008CF283FA4CF3A2FA8CF3E3B9D1E90423CA
:1004600082FA4CF200F10800A4FA8CF283FA4CF301
:10047000A2FA8CF37BB9D1E9062301F1200182FABB
:100480004CF200F10800A4FA8CF283FA4CF3A2FAC1
:100490008CF3002BC6D0002A04BF04301A4612BACF
:1004A000B2FA82F2FDE8024500EBD2007047D1E9D2
:1004B000002304F00305C4F100004FEAC50514F061
:1004C000040F91F840F00CFA05F562EA05021CBF32
:1004D00063EA050362464FF00004A9E781F000419A
:1004E00002E000BF83F0004330B54FEA41044FEA19
:1004F000430594EA050F08BF90EA020F1FBF54EAB4
:10050000000C55EA020C7FEA645C7FEA655C00F04F
:10051000E2804FEA5454D4EB5555B8BF6D420CDD20
:100520002C4480EA020281EA030382EA000083EAA3
:10053000010180EA020281EA0303362D88BF30BD43
:1005400011F0004F4FEA01314FF4801C4CEA113199
:1005500002D0404261EB410113F0004F4FEA0333F8
:100560004CEA133302D0524263EB430394EA050F83
:1005700000F0A780A4F10104D5F1200E0DDB02FAF2
:100580000EFC22FA05F2801841F1000103FA0EF286
:10059000801843FA05F359410EE0A5F120050EF14C
:1005A000200E012A03FA0EFC28BF4CF0020C43FA7D
:1005B00005F3C01851EBE37101F0004507D54FF08A
:1005C000000EDCF1000C7EEB00006EEB0101B1F5DA
:1005D000801F1BD3B1F5001F0CD349085FEA300020
:1005E0004FEA3C0C04F101044FEA445212F5800F2B
:1005F00080F09A80BCF1004F08BF5FEA500C50F1C8
:10060000000041EB045141EA050130BD5FEA4C0CAA
:10061000404141EB010111F4801FA4F10104E9D133
:1006200091F0000F04BF01460020B1FA81F308BF2A
:100630002033A3F10B03B3F120020CDA0C3208DDF6
:1006400002F1140CC2F10C0201FA0CF021FA02F1D1
:100650000CE002F11402D8BFC2F1200C01FA02F141
:1006600020FA0CFCDCBF41EA0C019040E41AA2BF66
:1006700001EB0451294330BD6FEA04041F3C1CDA2E
:100680000C340EDC04F11404C4F1200220FA04F04E
:1006900001FA02F340EA030021FA04F345EA0301F8
:1006A00030BDC4F10C04C4F1200220FA02F001FABA
:1006B00004F340EA0300294630BD21FA04F029463C
:1006C00030BD94F0000F83F4801306BF81F48011D5
:1006D0000134013D4EE77FEA645C18BF7FEA655C48
:1006E00029D094EA050F08BF90EA020F05D054EA1A
:1006F000000C04BF1946104630BD91EA030F1EBF1F
:100700000021002030BD5FEA545C05D14000494122
:1007100028BF41F0004130BD14F580043CBF01F515
:10072000801130BD01F0004545F0FE4141F47001FB
:100730004FF0000030BD7FEA645C1ABF19461046D6
:100740007FEA655C1CBF0B46024650EA013406BFD7
:1007500052EA033591EA030F41F4002130BD00BF96
:1007600090F0000F04BF0021704730B54FF4806453
:1007700004F132044FF000054FF0000150E700BFD4
:1007800090F0000F04BF0021704730B54FF4806433
:1007900004F1320410F0004548BF40424FF0000120
:1007A0003EE700BF42004FEAE2014FEA31014FEA63
:1007B00002701FBF12F07F4393F07F4F81F06051B2
:1007C000704732F07F4208BF704793F07F4F04BFFD
:1007D00041F40021704730B54FF4607401F00045DA
:1007E00021F000411CE700BF50EA010208BF70473A
:1007F00030B54FF000050AE050EA010208BF70472B
:1008000030B511F0004502D5404261EB41014FF493
:10081000806404F132045FEA915C3FF4D8AE4FF09B
:1008200003025FEADC0C18BF03325FEADC0C18BF7E
:10083000033202EBDC02C2F1200300FA03FC20FACF
:1008400002F001FA03FE40EA0E0021FA02F114441C
:10085000BDE600BF70B54FF0FF0C4CF4E06C1CEA35
:1008600011541DBF1CEA135594EA0C0F95EA0C0FA6
:1008700000F0DEF82C4481EA030621EA4C5123EA19
:100880004C5350EA013518BF52EA033541F4801148
:1008900043F4801338D0A0FB02CE4FF00005E1FBFB
:1008A00002E506F00042E0FB03E54FF00006E1FB45
:1008B00003569CF0000F18BF4EF0010EA4F1FF0488
:1008C000B6F5007F64F5407404D25FEA4E0E6D41C8
:1008D00046EB060642EAC62141EA55514FEAC520D9
:1008E00040EA5E504FEACE2EB4F1FD0C88BFBCF555
:1008F000E06F1ED8BEF1004F08BF5FEA500E50F106
:10090000000041EB045170BD06F0004646EA0101CB
:1009100040EA020081EA0301B4EB5C04C2BFD4EBFD
:100920000C0541EA045170BD41F480114FF0000EF6
:10093000013C00F3AB8014F1360FDEBF002001F064
:10094000004170BDC4F10004203C35DA0C341BDCDE
:1009500004F11404C4F1200500FA05F320FA04F0B0
:1009600001FA05F240EA020001F0004221F00041E4
:1009700010EBD37021FA04F642EB06015EEA430E57
:1009800008BF20EAD37070BDC4F10C04C4F1200587
:1009900000FA04F320FA05F001FA04F240EA02003A
:1009A00001F0004110EBD37041F100015EEA430E0B
:1009B00008BF20EAD37070BDC4F1200500FA05F22B
:1009C0004EEA020E20FA04F301FA05F243EA0203AA
:1009D00021FA04F001F0004121FA04F220EA0200B9
:1009E00000EBD3705EEA430E08BF20EAD37070BDFF
:1009F00094F0000F0FD101F00046400041EB0101DF
:100A000011F4801F08BF013CF7D041EA060195F0C0
:100A1000000F18BF704703F00046520043EB03037A
:100A200013F4801F08BF013DF7D043EA0603704767
:100A300094EA0C0F0CEA135518BF95EA0C0F0CD072
:100A400050EA410618BF52EA4306D1D181EA0301B8
:100A500001F000414FF0000070BD50EA410606BFB2
:100A60001046194652EA430619D094EA0C0F02D1F7
:100A700050EA013613D195EA0C0F05D152EA03363C
:100A80001CBF104619460AD181EA030101F000415A
:100A900041F0FE4141F470014FF0000070BD41F0A3
:100AA000FE4141F4780170BD70B54FF0FF0C4CF47D
:100AB000E06C1CEA11541DBF1CEA135594EA0C0F9C
:100AC00095EA0C0F00F0A7F8A4EB050481EA030EE9
:100AD00052EA03354FEA013100F088804FEA0333D0
:100AE0004FF0805545EA131343EA12634FEA02229E
:100AF00045EA111545EA10654FEA00260EF000415F
:100B00009D4208BF964244F1FD0404F5407402D2B0
:100B10005B084FEA3202B61A65EB03055B084FEA41
:100B200032024FF480104FF4002CB6EB020E75EB3E
:100B3000030E22BFB61A754640EA0C005B084FEA66
:100B40003202B6EB020E75EB030E22BFB61A7546E3
:100B500040EA5C005B084FEA3202B6EB020E75EB2E
:100B6000030E22BFB61A754640EA9C005B084FEAA6
:100B70003202B6EB020E75EB030E22BFB61A7546B3
:100B800040EADC0055EA060E18D04FEA051545EAA2
:100B900016754FEA06164FEAC30343EA52734FEA4B
:100BA000C2025FEA1C1CC0D111F4801F0BD141EAC4
:100BB00000014FF000004FF0004CB6E711F4801F29
:100BC00004BF01430020B4F1FD0C88BFBCF5E06F09
:100BD0003FF6AFAEB5EB030C04BFB6EB020C5FEA19
:100BE000500C50F1000041EB045170BD0EF0004E6E
:100BF0004EEA113114EB5C04C2BFD4EB0C0541EAA0
:100C0000045170BD41F480114FF0000E013C90E69C
:100C100045EA060E8DE60CEA135594EA0C0F08BF60
:100C200095EA0C0F3FF43BAF94EA0C0F0AD150EA5F
:100C300001347FF434AF95EA0C0F7FF425AF1046F2
:100C400019462CE795EA0C0F06D152EA03353FF41A
:100C5000FDAE1046194622E750EA410618BF52EA97
:100C600043067FF4C5AE50EA41047FF40DAF52EA6B
:100C700043057FF4EBAE12E74FF0FF3C06E000BF08
:100C80004FF0010C02E000BF4FF0010C4DF804CD15
:100C90004FEA410C7FEA6C5C4FEA430C18BF7FEAD5
:100CA0006C5C1BD001B050EA410C0CBF52EA430C03
:100CB00091EA030F02BF90EA020F0020704710F183
:100CC000000F91EA030F58BF994208BF90422CBF12
:100CD000D8176FEAE37040F0010070474FEA410C0B
:100CE0007FEA6C5C02D150EA013C07D14FEA430C29
:100CF0007FEA6C5CD6D152EA033CD3D05DF8040B9A
:100D0000704700BF8446104662468C4619466346CB
:100D100000E000BF01B5FFF7B7FF002848BF10F1A2
:100D2000000F01BD4DF808EDFFF7F4FF0CBF0120E7
:100D300000205DF808FB00BF4DF808EDFFF7EAFF63
:100D400034BF012000205DF808FB00BF4DF808ED1E
:100D5000FFF7E0FF94BF012000205DF808FB00BF13
:100D60004DF808EDFFF7CEFF94BF012000205DF89D
:100D700008FB00BF4DF808EDFFF7C4FF34BF0120AA
:100D800000205DF808FB00BF4FEA410C7FEA6C5C75
:100D900002D150EA013C0AD14FEA430C7FEA6C5C75
:100DA00002D152EA033C02D14FF0000070474FF0ED
:100DB000010070474FEA410212F5001215D211D519
:100DC0006FF47873B3EB625212D94FEAC12343F048
:100DD000004343EA505311F0004F23FA02F018BFCA
:100DE000404270474FF00000704750EA013005D193
:100DF00011F0004008BF6FF0004070474FF0000056
:100E0000704700BF53B94AB9002908BF00281CBF6A
:100E10004FF0FF314FF0FF3000F072B9ADF1080C28
:100E20006DE904CE00F006F8DDF804E0DDE9022308
:100E300004B070472DE9F047089E04468846002B11
:100E40004BD18A42154667D9B2FA82F24AB1C2F151
:100E5000200701FA02F320FA07F7954047EA030852
:100E600094404FEA154E230CB8FBFEF71FFA85FCA1
:100E70000EFB178843EA084307FB0CF1994209D996
:100E8000EB1807F1FF3080F01B81994240F2188186
:100E9000023F2B445B1AA4B2B3FBFEF00EFB1033EF
:100EA00044EA034400FB0CFCA44509D92C1900F1C9
:100EB000FF3380F00781A44540F2048102382C44BE
:100EC00040EA0740A4EB0C0400271EB1D4400023E5
:100ED000C6E900433946BDE8F0878B4209D9002EA8
:100EE00000F0EB800027C6E9000138463946BDE82E
:100EF000F087B3FA83F7002F47D18B4202D38242A7
:100F000000F2FA80841A61EB030301209846002E58
:100F1000E0D0C6E90048DDE702B9FFDEB2FA82F2AE
:100F2000002A40F08F80491B4FEA154E1FFA85F8C2
:100F30000127B1FBFEFC230C0EFB1C1143EA01430D
:100F400008FB0CF1994207D9EB180CF1FF3002D2E3
:100F5000994200F2CD808446591AA3B2B1FBFEF04B
:100F60000EFB101443EA044408FB00F8A04507D91F
:100F70002C1900F1FF3302D2A04500F2B6801846CA
:100F8000A4EB080440EA0C409FE7C7F1200CBB40EB
:100F900022FA0CFE4EEA030E01FA07F420FA0CF5D1
:100FA00021FA0CF34FEA1E482543B3FBF8F92C0C49
:100FB00008FB19331FFA8EFA44EA034309FB0AF4CB
:100FC0009C4202FA07F200FA07F10BD91EEB030369
:100FD00009F1FF3080F087809C4240F28480A9F1C3
:100FE000020973441B1BADB2B3FBF8F008FB1033CE
:100FF00045EA034400FB0AFAA24508D91EEB0404A3
:1010000000F1FF336BD2A24569D90238744440EA3B
:101010000940A0FB0289A4EB0A044C45C2464B469A
:1010200054D351D0002E69D0B1EB0A0564EB030410
:1010300004FA0CFCFD40FC404CEA0505C6E90054EE
:10104000002747E7C2F1200320FA03F7954001FA91
:1010500002F021FA03F34FEA154E3843010CB3FBBB
:10106000FEF71FFA85F80EFB173341EA034107FB31
:1010700008F38B4204FA02F407D9691807F1FF3C20
:101080002FD28B422DD9023F2944CB1A81B2B3FB18
:10109000FEF00EFB103341EA034100FB08F38B42E4
:1010A00007D9691800F1FF3C17D28B4215D90238D5
:1010B0002944C91A40EA07473BE73746304609E763
:1010C0000746E7E61846FBE64145ABD2B8EB020A15
:1010D00069EB0E0201381346A4E76046E9E71846BB
:1010E00095E76746D1E781467CE702382C4447E71D
:1010F000ACF1020C2B442FE7384608E73746E9E607
:10110000704700BF80B400AF1D4B1B6B1C4A43F0FF
:10111000010313631B4B1B681A4A43F0030313605C
:10112000184BDB68174A23F00303D360144B5B6C46
:10113000134A43F480735364134B9B68124A43F081
:1011400001039360104B1B690F4A23F001031361E5
:101150000E4B1B680D4A43F4802313600C4B5B68F5
:101160000B4A23F440335360074B9B68064A23F431
:101170000063936000BFBD465DF8047B704700BF0D
:1011800000380240000002400020014000E100E081
:101190000023014080B483B000AF78607B680222F6
:1011A0001A717B6800221A607B684FF07F529A6048
:1011B0000F4B5A687B681B680D4913434B600C4BFF
:1011C0009B687A6812791146094A0B4393607B68E1
:1011D000D3ED027AFCEEE77AC7ED007A3B68DAB22B
:1011E000044B1A7000BF0C37BD465DF8047B704796
:1011F00000200140290A002080B483B000AF0346DC
:10120000FB710C4B5A6BFB790A4913434B63094B37
:101210005B68084A23F020035360064B9B68054A2D
:1012200043F08043936000BF0C37BD465DF8047BFC
:10123000704700BF0020014080B483B000AF7860E9
:10124000094B1B6803F00203022B03D17B680122C8
:101250001A7002E07B6800221A7000BF0C37BD468E
:101260005DF8047B704700BF0020014080B582B06C
:1012700000AF78601548FFF7DFFF144B1B78002B99
:101280001ED0134BDB6C07EE903AF8EE677ADFED79
:10129000116A87EEA67A104B1B781A46962303FB39
:1012A00002F307EE903AF8EEE77A67EE277AFCEE63
:1012B000E77A17EE903A9AB27B681A80002300E032
:1012C000012318460837BD4680BD00BF2C0A002008
:1012D0000020014000F07F45290A002080B483B03F
:1012E00000AF03463960FB7197F90730002B0BDA2A
:1012F0003B68DAB20C49FB7903F00F03043B12019F
:10130000D2B20B441A7609E03B68DAB2074997F982
:1013100007301201D2B20B4483F8002300BF0C3710
:10132000BD465DF8047B704700ED00E000E100E0A1
:1013300080B582B000AF78607B68013BB3F1807FFD
:1013400001D301230FE00A4A7B68013B53600F2160
:101350004FF0FF30FFF7C2FF054B00229A60044BAD
:1013600007221A60002318460837BD4680BD00BF1B
:1013700010E000E080B500AF00F086FA054B1B6876
:10138000054AA2FB03239B0C1846FFF7D1FF00BFC1
:1013900080BD00BF0000002083DE1B4380B483B00B
:1013A00000AF78607B68064A136000BF044B1B687F
:1013B000002BFBD100BF0C37BD465DF8047B7047A6
:1013C000300A002080B582B000AF78607B68094A9F
:1013D000136003E04FF47A70FFF7E0FF054B1B68E2
:1013E0005A1E04490A60002BF4D100BF0837BD46DD
:1013F00080BD00BF340A002080B400AF064B1B68DC
:10140000002B04D0044B1B68013B034A136000BF50
:10141000BD465DF8047B7047300A002080B483B07D
:1014200000AF7860084611461A460346FB700B462B
:10143000BB7013467B70204B1A6B7B78012101FA3D
:1014400003F31D4913430B63BB78002B16D07B6855
:101450001A68FB785B00012101FA03F31A437B68E9
:101460001A607B681A68FB785B000133012101FA7E
:1014700003F3DB431A407B681A6016E07B681A6846
:10148000FB785B00012101FA03F3DB431A407B6820
:101490001A607B681A68FB785B000133012101FA4E
:1014A00003F3DB431A407B681A6000BF0C37BD466C
:1014B0005DF8047B704700BF0038024080B483B001
:1014C00000AF78600B46FB701346BB707B681A68F0
:1014D000FB785B00012101FA03F31340002B18D0C5
:1014E000BB78002B09D07B685A69FB78012101FA8F
:1014F00003F31A437B685A6109E07B685A69FB78F9
:10150000012101FA03F3DB431A407B685A6100238F
:1015100000E0012318460C37BD465DF8047B704798
:1015200080B500AFFFF726FF002202210748FFF732
:10153000C5FF0120FFF746FF012202210348FFF704
:10154000BDFF0620FFF73EFF00BF80BD0004024044
:1015500080B582B000AF00237B6009E07B68D9B220
:10156000012301220D48FFF759FF7B6801337B609F
:101570007B68072BF2DD094B04225A61332000F00F
:101580000FF8322000F00CF8282000F009F80C20A9
:1015900000F006F800BF0837BD4680BD00040240D9
:1015A00080B582B000AF0346FB71002200211648CF
:1015B000FFF784FF002201211348FFF77FFF124B42
:1015C0005B69114A03F00F0353610F4B5A69FB79B2
:1015D00003F0F0030C4913434B61FFF7A1FF0A4BE3
:1015E0005B69094A03F00F035361074B5B69FA79A2
:1015F00012011146044A0B435361FFF791FF00BFEC
:101600000837BD4680BD00BF0004024080B582B0EF
:1016100000AF0346FB71012200211648FFF74EFF81
:10162000002201211348FFF749FF124B5B69114A61
:1016300003F00F0353610F4B5A69FB7903F0F0037A
:101640000C4913434B61FFF76BFF0A4B5B69094A77
:1016500003F00F035361074B5B69FA7912011146DE
:10166000044A0B435361FFF75BFF00BF0837BD46D9
:1016700080BD00BF0004024080B584B000AF0346C7
:101680000A46FB711346BB718023FB73FB79002B69
:1016900004D1FA7BBB791344FB7305E0C023FB73D1
:1016A000FA7BBB791344FB73FB7B1846FFF778FF8B
:1016B00000BF1037BD4680BD80B582B000AF7860F6
:1016C00007E07B681B781846FFF7A0FF7B680133B3
:1016D0007B607B681B78002BF3D100BF0837BD46C9
:1016E00080BD000080B582B000AF0C2000F016FA7B
:1016F00003467B60234B01221A70FFF703FD7868D5
:10170000FFF748FDFFF736FEFFF722FF012100201B
:10171000FFF7B2FF1C48FFF7CFFF0020FFF76CFD7B
:101720000A20FFF74FFE1948FFF7A0FD03461A46AF
:10173000174B1A70164B1B78002B16D1134B1B88B6
:10174000144A0721144800F0FDFC07210020FFF790
:1017500093FF1148FFF7B0FFDF20FFF757FF0F4857
:10176000FFF7AAFF0A4B01221A700D4B9B6803F08A
:101770000203002BD7D10A4B9B68094A43F08043F0
:101780009360D0E72C0A0020685B00082A0A00203A
:10179000280A0020705B0008180A0020745B00080B
:1017A0000020014080B500AF0448FFF75FFD03460D
:1017B0001A46034B1A7000BF80BD00BF2A0A0020E2
:1017C000280A002080B584B000AF7860114B1B68F8
:1017D000002B02D10F4B104A1A600E4B1B68FB60A6
:1017E0000C4B1A687B6813446A46934207D900F091
:1017F0006BF902460C2313604FF0FF3306E0054BF4
:101800001A687B681344034A1360FB681846103754
:10181000BD4680BDE0090020600A002080B500AF11
:10182000164BD3F88830154A43F47003C2F8883059
:10183000134B1B68124A43F001031360104B002244
:101840009A600F4B1B680E4A23F0847323F4803395
:1018500013600B4B0B4A5A60094B1B68084A23F470
:1018600080231360064B0022DA6000F089F8034BF6
:101870004FF000629A6000BF80BD00BF00ED00E045
:10188000003802401030002480B487B000AF00233D
:101890003B6100237B610223FB600023BB600223CA
:1018A0007B60324B9B6803F00C033B613B69042B6C
:1018B00007D0082B09D0002B3DD12D4B2D4A1A60A3
:1018C0003DE02B4B2C4A1A6039E0284B5B689B0D9E
:1018D00003F00103BB60254B5B6803F03F037B60B3
:1018E000BB68002B0CD0244A7B68B2FBF3F31F4A81
:1018F00052689209C2F3080202FB03F37B610BE01A
:101900001C4A7B68B2FBF3F3184A52689209C2F38F
:10191000080202FB03F37B61144B5B681B0C03F0B2
:10192000030301335B00FB607A69FB68B2FBF3F3EE
:101930000F4A136003E00E4B0E4A1A6000BF0B4BB8
:101940009B681B0903F00F030C4AD35CDBB23B61BD
:10195000074B1A683B6922FA03F3054A136000BF7C
:101960001C37BD465DF8047B704700BF003802405D
:10197000000000200024F40040787D0104000020D5
:1019800080B483B000AF00237B6000233B60354B05
:101990001B68344A43F480331360324B1B6803F4F2
:1019A00000333B607B6801337B603B68002B03D1D5
:1019B0007B68B3F5A04FF0D12A4B1B6803F40033CA
:1019C000002B02D001233B6001E000233B603B6819
:1019D000012B40D1234B1B6C224A43F080531364EC
:1019E000214B1B68204A43F4404313601D4B1D4AA2
:1019F0009B6893601B4B1B4A9B689360194B9B68C9
:101A0000184A43F480539360164B184A5A60154B9A
:101A10001B68144A43F08073136000BF114B1B68AE
:101A200003F00073002BF9D0114B40F202721A60E0
:101A30000C4B9B680B4A23F003039360094B9B6894
:101A4000084A43F00203936000BF064B9B6803F013
:101A50000C03082BF9D100BF0C37BD465DF8047BA1
:101A6000704700BF00380240007000401954410721
:101A7000003C02400D4885460D480E490E4A0023A1
:101A800002E0D458C4500433C4188C42F9D30B4A32
:101A90000B4C002301E013600432A242FBD3FFF79A
:101AA000BDFE00F017F8FFF71DFEFEE70000012065
:101AB00000000020C00900201C5E0008C0090020B2
:101AC000600A0020FEE70000014B1868704700BF65
:101AD0001400002070B50D4E0D4D761BB61006D0CB
:101AE0000024013455F8043B9847A642F9D1094E29
:101AF000094D761B04F02CF8B61006D000240134F2
:101B000055F8043B9847A642F9D170BD105E000815
:101B1000105E0008185E0008105E0008024B0146C7
:101B2000186800F003B800BF140000202DE9F04F42
:101B300001F10B05162D83B0064623D8102900F2BB
:101B4000B98000F0E1FA102518230220C54F3B446C
:101B5000A3F108025C68944200F06681636823F098
:101B600003032344D4E902515A68E96042F00102B8
:101B70008D6030465A6000F0CDFA0834204603B03C
:101B8000BDE8F08F35F0070500F19480A94200F21E
:101B9000918000F0B9FAB5F5FC7FC0F083816B0A43
:101BA00000F08F80042B00F24681AB0903F139006D
:101BB00003F1380CC300AB4F3B44A3F108015C6850
:101BC000A14206D10CE0002A80F21D81E468A14206
:101BD00006D0636823F003035A1B0F2AF3DD604627
:101BE0003C69DFF894C2644571D0636823F0030355
:101BF0005A1B0F2A00F34481002AC7E904CC80F263
:101C00002681B3F5007F80F06981DB08591C7A6872
:101C100057F83180C4F808804FF0010E9B100EFA7F
:101C200003F307EBC10E1343AEF10802E2607B60E1
:101C300047F83140C8F80C408210012494409C427F
:101C40004BD81C4206D120F0030064001C4200F176
:101C50000400FAD007EBC009CE468046DEF80C300F
:101C60009E4507D122E1002A80F22981DB689E454A
:101C700000F01C81596821F003014A1B0F2AF2DD94
:101C8000D3E9028E5C1945F001055D6042F0010563
:101C9000C8F80CE03046CEF80880C7E90444C4E92F
:101CA00002CC65605A50019300F034FA019B03F1B5
:101CB000080463E700240C232046336003B0BDE82A
:101CC000F08F4FF4007340204FF03F0C73E77B68B8
:101CD0008210012494409C42B3D9BC68636823F00D
:101CE0000309A94503D3A9EB05030F2B7BDC5E4B4E
:101CF000DFF888A11A68DAF80030013305EB020832
:101D000000F0488108F5805808F10F0828F47F6832
:101D100028F00F084146304600F002FAB0F1FF3FCC
:101D2000834600F0048104EB0900584500F2FD8071
:101D30004E4A13684344136000F04D81DAF80010F6
:101D400001311BBFABEB00001B18CAF800B01360D9
:101D50001BF0070300F03481C3F10801C3F5805381
:101D60008B440833D844C8F30B08A3EB080841465A
:101D70003046019200F0D4F9431C019A00F04681EC
:101D8000A0EB0B01414441F001011368C7F808B012
:101D90004344BC42CBF80410136015D0B9F10F0FC7
:101DA00040F230816068A9F10C0121F0070100F0D8
:101DB000010004EB010C08434FF0050E0F29606091
:101DC000CCE901EE00F23A81294A2A481168BC6840
:101DD0008B42016888BF136062688B4222F0030265
:101DE00088BF0360A7E0621943F0010345F00105D5
:101DF00065603046BA60536000F08CF908342046C4
:101E000003B0BDE8F08F2344E1685A68A56842F04A
:101E10000102E96030468D605A6000F07BF90834B9
:101E2000204603B0BDE8F08FDC68A34208BF023053
:101E30003FF4D6AE92E6142B71D9542B00F2AD804C
:101E40002B0B03F16F0003F16E0CC300B3E62344C8
:101E500030465A6842F001025A60083400F05AF9DC
:101E60008CE600BF40040020140A0020E409002092
:101E70000C0A0020100A0020480400204808002016
:101E8000611945F0010E42F00105C4F804E0304646
:101E9000C7E90411C1E902CC4D60E25000F03AF903
:101EA00008346BE6E80805F108034FE608F101087D
:101EB00018F0030F0EF1080E7FF4D0AE52E0194473
:101EC0001C464A68DB6854F8085F42F001024A6029
:101ED0003046EB609D6000F01DF94FE65A0A042A77
:101EE00035D9142A6FD802F15C01C9005B3207EBC7
:101EF000010E7958AEF1080E8E4558D04A6822F08E
:101F000003029A4202D989688E45F7D1D1F80CE0D4
:101F10007B68C4E9021ECEF80840CC608CE603F171
:101F20005C0003F15B0CC30045E6BC4272D0BC68A8
:101F3000626822F003029542A2EB050302D80F2B40
:101F40003FF751AF304600F0E5F8002416E69A0955
:101F500002F13901C9003832C9E7D9F80090994532
:101F600040F0838010F0030FA9F1080300F1FF3067
:101F7000F3D17B6823EA04037B6064009C423FF654
:101F8000ACAE1CB9A9E6640008F104081C42FAD002
:101F900040465FE608F11008BCE6B3F5AA7F26D8F4
:101FA000EB0B03F1780003F1770CC30003E67B68C9
:101FB00092104FF0010808FA02F213437B60A8E781
:101FC0004FF48053CEE6542A29D81A0B02F16F0140
:101FD000C9006E328BE7C0F30B0100297FF4AEAE6F
:101FE00009EB0802B96842F001024A60ECE640F2EF
:101FF000545293421CD8AB0C03F17D0003F17C0CCE
:10200000C300D8E50123CBF804309BE701214FF052
:102010000008BAE6164A1368434413608EE6B2F528
:10202000AA7F14D8DA0B02F17801C90077325EE793
:102030004FF47E737F204FF07E0CBCE504F1080165
:102040003046019202F0CAFD019A1368BCE640F2E4
:1020500054518A4205D89A0C02F17D01C9007C32A4
:1020600045E74FF47E717E2241E77B6885E700BF3C
:10207000E4090020F0B4860743D0541E002A3ED065
:10208000CAB2034602E014F1FF3438D303F8012B3F
:102090009D07F8D1032C2BD9CDB245EA05250F2C8D
:1020A00045EA054516D9A4F110073F0903F12006BA
:1020B00006EB071603F1100242E9045542E9025506
:1020C0001032B242F8D104F00F040137032C03EBB5
:1020D00007130DD91E462246043A032A46F8045B2C
:1020E000FAD8221F22F003020432134404F003043E
:1020F0002CB1C9B21C4403F8011B9C42FBD1F0BCBB
:10210000704714460346C5E7014802F069BE00BFA8
:10211000480A0020014802F065BE00BF480A0020BE
:1021200038B5074C0023054608462360FFF74AFBF5
:10213000431C00D038BD2368002BFBD02B6038BD7A
:102140005C0A00200CB430B5214B00299DB01C68FE
:1021500038DB4FF4027302900690ADF8143021A8DA
:1021600019D001390346209A0491079101904FF646
:10217000FF7502A92046ADF8165000F02DF8421C5C
:1021800001DA8B232360029B00221A701DB0BDE888
:10219000304002B0704703460491079101904FF61A
:1021A000FF75209AADF8165002A9204600F014F8E9
:1021B000431C04DB1DB0BDE8304002B070478B23E8
:1021C0002360F7E78B2323604FF0FF30F2E700BF77
:1021D00014000020000000002DE9F04FD7B00C469D
:1021E000069193460993039002F0ECFD0368179360
:1021F0001846FEF705F9A38916901F0603D5236933
:10220000002B00F0558700235E469FED8F7B1093D7
:10221000CDE92B331593CDE919331B93189305930F
:102220002DAB2A93994633788DED127B002B00F06D
:10223000CE82252B344602D11CE0252B03D014F886
:10224000013F002BF9D1A51B85B1DDE92B3201330C
:102250002A44072BC9F80060C9F80450CDE92B3295
:102260007CDC09F10809059B2B4405932378002B9E
:1022700000F0AD8200236778079398468DF88B3085
:1022800004F1010B4FF0FF3A2B250BF1010BA7F1E5
:1022900020035A2B00F2E483DFE813F0A503E203E6
:1022A000E203A003E203E203E2038103E203E203A9
:1022B000B503B003E20372015801E2033B03C60019
:1022C000C600C600C600C600C600C600C600C600DE
:1022D000E203E203E203E203E203E203E203400378
:1022E000E2037701F002400340034003E203E2030C
:1022F000E203E203EB02E203E2038400E203E2030F
:10230000E203C202E203CE03E203E203AC02E20311
:10231000E203E203E203E203E203E203E203400337
:10232000E2037701DA00400340034003C103DA000F
:102330005B00E2031E03E203060386002B035B003F
:10234000E203C2025D002901E203E2033801E20375
:102350005D0048F020089BF8007096E72AAA0699CD
:10236000039803F0B1F880B90DF1B4097BE72AAA0C
:102370005946504603F0A8F8002801F0C5800A9B92
:102380001BB10A99039802F029FC069B9B8913F064
:10239000400F059B18BF4FF0FF330593059857B0CA
:1023A000BDE8F08F48F0100818F0200F00F073859A
:1023B000099C073424F00703D3E9004503F1080220
:1023C000099228F48063002200218DF88B10BAF165
:1023D000FF3F56A9049100F0A78454EA050123F0B9
:1023E00080085BD1BAF1000F40F09687002A40F0D8
:1023F0001F8513F0010356AE089302D0302306F870
:10240000013D00230A930F9314931193089B9DF8A9
:102410008B205345B8BF53460493002A00F0C88070
:10242000049B01330493C3E0A7F1300300221BF89F
:10243000017B02EB820203EB4202A7F13003092B7E
:10244000F5D9079223E700BF00000000000000005C
:1024500043469E0640F11782099C073424F0070486
:10246000D4E9000104F10802099204460D4600284F
:1024700071F1000205DA2D22644265EB45058DF805
:102480008B2056AABAF1FF3F049200F0E38654EA8B
:1024900005014FF0010223F08008A3D0012A00F0CB
:1024A0004784022A00F0EF8256A900E03146E20894
:1024B00042EA4572E80804F0070305461446303343
:1024C00054EA050201F8013C01F1FF36EED118F0A3
:1024D000010F00F0E882302B00F0E582049A023907
:1024E0003023521A06F8013C08920E4689E743460B
:1024F0009E0640F1A682099C073424F0070202F1EF
:102500000801D2E90045099101225DE7B64B159318
:1025100018F0200F00F07481099C073424F00703A1
:10252000D3E9004503F10802099218F0010F09D020
:1025300054EA050306D030238DF88D7048F0020868
:102540008DF88C3028F4806302223DE79BF8007000
:102550002A2F0BF1010201F0EB82A7F13003092BC6
:1025600093464FF0000A3FF692AE1BF8017B0AEB50
:102570008A0A03EB4A0AA7F13003092BF5D986E64C
:102580009BF8007048F004087FE609980023016872
:102590008DF88B301A468DF8F4100123011DCDE91A
:1025A000083104930A9292460F92149211923DAE12
:1025B00018F002030B9302D0049B0233049318F02B
:1025C00084032C9C0E933FD1079B04995D1A002D28
:1025D0003ADD102D2B9A29DD49462046B1461023BD
:1025E0002097039C069E04E0103D102D01F1080188
:1025F00018DD01327D4F1030072ACDE92B20C1E9CB
:102600000073F1DD2AAA314620460C9302F05CFFEC
:1026100000287FF4B4AE103D102DDDE92B202DA94C
:102620000C9BE6DC209F4E460446894601326F4BE8
:102630002C44072ACDE92B24C9E9003500F37C8519
:102640009DF88B2009F1080972B12B9A01320134EF
:102650000DF18B000121072ACDE92B24C9E90001E6
:1026600000F3738309F108090B9B6BB12B9B0133BA
:10267000023423A90222072BCDE92B34C9E9001229
:1026800000F36F8309F108090E9B802B00F079821B
:10269000089BAAEB0305002D35DD102D2B9A544B1A
:1026A00026DD49462046B1464FF0100A069E1C46DC
:1026B00004E0103D102D01F1080115DD013210304C
:1026C000072ACDE92B20C1E9004AF2DD2AAA3146CA
:1026D000039802F0F9FE00287FF451AE103D102D52
:1026E000DDE92B202DA9E9DC4E4623468946044628
:1026F00001322C44072ACDE92B24C9E9003500F327
:102700003C8309F1080918F4807F40F0DB812B9BA2
:10271000089AC9F8006001331444072B2C94C9F8B7
:1027200004202B9300F3A18209F1080918F0040F8B
:1027300033D0079B049A9D1A002D2EDD102D2B9B64
:1027400021DD1026039FDDF8188004E0103D102DD8
:1027500009F1080917DD0133244A1034072BCDE9AC
:102760002B34C9E90026F1DD2AAA4146384602F099
:10277000ABFE00287FF403AE103D102DDDE92B34B5
:102780000DF1B409E7DC0133184A2C44072BCDE9DD
:102790002B34C9E9002500F3A583059B079A04990A
:1027A0008A42ACBF9B185B180593002C40F0258231
:1027B00000232B930A9B1BB10A99039802F00EFA8F
:1027C0000DF1B4095E463378002B7FF432AD2C9BBB
:1027D000002B3FF4DAAD069C03982AAA214602F0AA
:1027E00073FEA389D3E500BF905B0008C45B0008BB
:1027F000D45B0008AE4B159318F0200F7FF48CAE1D
:10280000099A18F0100F02F1040340F0798318F0D0
:10281000400F099A00F0708314880993002584E61C
:10282000099B1E6800258DF88B501C1D002E00F0A2
:102830007384BAF1FF3F00F05F8652462946304666
:10284000FDF7DEFC0A90002800F09A870A9B9B1B8C
:102850000893AA4623EAE37309940493CDF828A0C9
:10286000CDF83CA0CDF850A0CDF844A09DF88B2029
:10287000D3E548F008089BF8007006E548F010031F
:102880009E063FF5E9AD0999DD0601F1040200F16C
:1028900051835C06099940F14A83B1F900400992DD
:1028A000E51720462946E2E5099A18F0200F52F86C
:1028B000043B099240F0458318F0100F40F07C85EE
:1028C00018F0400F40F02E8618F4007F00F0748559
:1028D000059A1A705E4676E79BF800706C2F03BF6E
:1028E0009BF8017048F020080BF1010B48F010082C
:1028F000CBE409996F4B0C68159347F6300204310D
:10290000ADF88C2048F002030991002502227827B7
:102910005AE548F080089BF80070B6E4099C07343B
:1029200024F0070494ED007B52EC171B22F00043C7
:102930001D938DED1C7A0834DDE91C014FF0FF3248
:102940005D4B09948DED127BFEF71EFA002840F0D6
:10295000FF824FF0FF32584BDDE91C01FEF7F6F91C
:10296000002840F0F58200220023DDE91201FEF785
:10297000E3F9002840F0E3869DF88B204F4E504B42
:102980000020032104910A9028F08008472FD8BF27
:102990001E46089182460F90149011903DE5039FCA
:1029A000384602F00FFA436818931846FDF728FDE1
:1029B0001B900446384602F005FA83681A93002CEF
:1029C0003FF4C9AC9BF80070002B3FF45EAC1B7861
:1029D000002B3FF45AAC48F4806856E448F00108F4
:1029E0009BF8007051E49DF88B309BF80070002B31
:1029F0007FF44BAC20238DF88B3046E48DF88B5060
:102A00009BF8007041E4099B9BF800701A680792DC
:102A1000002A03F10403C0F25A83099335E49BF8BA
:102A20000070682F03BF9BF8017048F400780BF129
:102A3000010B48F0400828E448F010039E063FF5DB
:102A40005AAD099ADD0602F1040100F161825C06CB
:102A5000099A40F15A821488099100250122B3E4B1
:102A6000002F3FF4B4AE002301211A4604918DF8E3
:102A7000F4708DF88B300A939A460F931493119348
:102A800008913DAE94E5159856AE230904F00F0168
:102A900043EA05732A091C461546435C06F8013DC6
:102AA00054EA0503F1D1049B9B1B0893A9E400BFE2
:102AB000A45B0008905B0008FFFFEF7F845B0008C9
:102AC000805B0008652F40F3DC8000220023DDE9F5
:102AD0001201FEF727F9002800F060812B9BAD4A18
:102AE000C9F80020013301340122072BCDE92B3432
:102AF000C9F8042000F33C8409F10809249B109ACA
:102B00002C9C934280F2E9812B9B179AC9F80020F4
:102B1000169AC9F8042001331444072BCDE92B344D
:102B200000F3EE8209F10809109B5D1E002D7FF76E
:102B3000FDAD102D2B9A984B40F3038419461026B7
:102B40002346039FDDF818A00C4605E009F10809AB
:102B5000103D102D40F3F28301321033072ACDE9E6
:102B60002B23C9E90046F1DD2AAA5146384602F076
:102B7000ABFC00287FF403ACDDE92B230DF1B40995
:102B8000E6E7079B049A9D1A002D7FF781AD102D73
:102B90002B9A814B25DD49462046B1461C46069EB0
:102BA00004E0103D102D01F1080116DD0132103056
:102BB0001023072ACDE92B200C604B60F1DD2AAAF7
:102BC0003146039802F080FC00287FF4D8AB103D1A
:102BD000102DDDE92B202DA9E8DC4E462346894641
:102BE000044601322C44072ACDE92B24C9E90035DB
:102BF00000F3B18309F108094AE52AAA0699039866
:102C000002F062FC00283FF4D3ADFFF7B8BB2AAA5C
:102C10000699039802F058FC00287FF4B0AB249B7F
:102C20002C9C0DF1B4091BB9109A002A00F0928473
:102C30002B9A1799C9F800101699C9F80410013297
:102C40000C44072A2C942B9200F3A78509F108095C
:102C5000002BC0F22086109B01321C44072ACDE9CC
:102C60002B24C9E900637FF75FAD2AAA0699039870
:102C700002F02AFC00287FF482AB2C9C0DF1B409F1
:102C800054E5109A2B9B012A04F1010403F101057C
:102C900009F1080740F30E810123072DC9F80060F0
:102CA000CDE92B54C9F8043000F31D83169B179A05
:102CB000691C1C4407290B91CDE92B14C7E900239B
:102CC00000F31D8308370B9A531C1D460895109D71
:102CD0000E9300220023DDE9120105F1FF3A07F10E
:102CE0000809FEF71FF8002840F0A780089DC7F8E4
:102CF00004A001365444072D3E602C942B9500F31C
:102D0000EF810B9A07F1100302324F460892994661
:102D1000199A7A601444089A2C9426AB072A2B92AD
:102D20003B607FF703ADA0E7012A98467FF4B9AB7B
:102D3000002D08BF0A2C80F0938256AE3034012358
:102D400006F8014D0893FFF75CBB2AAA0699039881
:102D500002F0BAFB00287FF412AB2C9C0DF1B409F1
:102D600082E42AAA0699039802F0AEFB00287FF4B9
:102D700006AB2C9C0DF1B40986E42AAA06990398A7
:102D800002F0A2FB00287FF4FAAA2C9C0DF1B409F2
:102D9000B9E400BFC05B0008D45B0008249B002B93
:102DA00040F37581DDE910239342A8BF1346002B41
:102DB0001D460DDD2B9BC9F8006001332C44072B09
:102DC0002C94C9F804502B9300F3BE8409F1080930
:102DD000119B002DA8BF5B1B002B1D4640F3D48127
:102DE000102D2B9ABC4B40F3BB81184621464B4615
:102DF0001027B146DDF80CA0069C064604E0083317
:102E0000103D102D40F3A78101321031072ACDE982
:102E10002B21C3E90067F2DD2AAA2146504602F0C1
:102E200053FB00287FF4ABAADDE92B212DABE7E7AC
:102E3000CDF820A056AEFFF7E4BABAF1000F7FF745
:102E400067AFBAF1100FA44B40F34E8619462246E5
:102E50003B461026DDF80C90069C0E9D0F4607E0C1
:102E60000833AAF1100ABAF1100F40F38D82013530
:102E70001032072DCDE92B52C3E90076F0DD2AAAE6
:102E80002146484602F020FB00287FF478AADDE9BD
:102E90002B522DABE5E7099A18F0100F02F104034D
:102EA00040D118F0400F099A38D0148809930025B2
:102EB000FFF787BA18F0010F7FF4EEAE0122072D5D
:102EC000C9F80060CDE92B54C9F8042000F308814B
:102ED0000233089309F110091AE718F0010F7FF483
:102EE00013AE23E42AAA0699039802F0EDFA00280B
:102EF0007FF445AA2C9C50E418F4007F40F00D8329
:102F0000146809930025FFF710BB980500F10F83A3
:102F10001468099101220025FFF756BA18F4007FC2
:102F200040F01383146809930025FFF74ABA980507
:102F300000F103830C680992E51720462946FFF744
:102F400096BA059A1046D117C3E900015E463AE4E5
:102F5000DDE9120102460B46FDF716FF002840F09E
:102F60009985612F00F00784412F00F0F98248F421
:102F7000807327F02002BAF1FF3F0E930492139B57
:102F800000F01F85472A00F01685002BC0F2E98368
:102F90009DED127BCDE90A008DED1E7B662F00F0C2
:102FA000DD84462F00F06285049B0398452B0CBFFF
:102FB0000AF10105554628AA25ABCDE900320221C8
:102FC00024AB2A469DED1E0B00F08EFE672F0646B1
:102FD00040F0958518F0010F40F0F784289B40469B
:102FE0009B1BDDF838801093249B1193049B472B87
:102FF00000F07183049B462B00F007840499119B19
:10300000FAB2412908BF0F3203F1FF3306BFD2B233
:1030100001210021002B2493B8BF119B8DF898202B
:10302000BABFC3F101032D222B22092B8DF8992061
:1030300000F3E584002940F06A8530228DF89A205B
:103040000DF19B0230331370531C26AA9B1A109A61
:103050001993012A1344089340F32885089B169A74
:103060001344089300230F9314931193089B20F4A7
:10307000806023EAE37340F4807804930B9B002B79
:1030800040F03C839A469DF88B20FFF7C6B92B9AF7
:103090001249C9F80010013201340121072ACDE993
:1030A0002B24C9F804103FF7B2AD09F10809BAE5BD
:1030B00040210398FEF73AFD069B1860186100282E
:1030C00000F05385069A40235361FFF79CB85242A3
:1030D00007920993FFF756BAD45B0008C05B00085B
:1030E0002AAA0699039802F0EFF900287FF447A96D
:1030F000DDE92B34013308930DF1BC092DAF07E650
:103100002AAA0699039802F0DFF900287FF437A96C
:103110002C9C0DF1B40907E55346062B28BF062366
:10312000B2460F96149611960A9632460493CDE94C
:103130000834A44EFFF771B92AAA0699039802F041
:10314000C3F900287FF41BA99DF88B202C9C0DF15E
:10315000B409FFF779BA0C4631464E4699460B46FC
:1031600001322C44072ACDE92B24C9E9003540F36C
:10317000D1812AAA0699039802F0A6F900287FF4C3
:10318000FEA82C9C0DF1B409119B18F4806F3344F8
:103190009A4640F01B81249B109A934249DB18F019
:1031A000010F46D1109AB518A5EB0A05D31A9D4216
:1031B000A8BF1D46002D0DDD2B9AC9F800A00132D5
:1031C0002C44072A2C94C9F804502B9200F33C831A
:1031D00009F10809002DACBF5D1B1D46002D7FF7CE
:1031E000A5AA102D2B9A784B40F3AB8019461026D8
:1031F0002346039FDDF818A00C4605E009F10809F5
:10320000103D102D40F39A8001321033072ACDE98A
:103210002B23C9E90046F1DD2AAA5146384602F0BF
:1032200053F900287FF4ABA8DDE92B230DF1B40995
:10323000E6E72B9A1799C9F800101699C9F80410F7
:1032400001320C44072A2C942B9200F3B58209F129
:103250000809A7E7002D08BF0A2C9846FFF46DADBA
:1032600008F480630022CDF820900A97CDF82C80D6
:1032700056AE9146DDF868801F460AE000232046DE
:1032800029460A22FDF7BEFD04460D4654EA050311
:1032900046D00A22002320462946FDF7B3FD3032EE
:1032A00006F8012C09F10109013E002FE6D098F83B
:1032B00000309945E2D1B9F1FF0FDFD0002D08BFF2
:1032C0000A2CDBD31B9B1899F61A1A46304602F0DB
:1032D000C9F898F80130002B00F0898308F1010843
:1032E0004FF00009CAE72AAA0699039802F0ECF801
:1032F00000287FF444A8DDE92B542DAFD6E42AAA98
:103300000699039802F0E0F800287FF438A8DDE978
:103310002B342DAF0B93D6E4012A7FF4C2A80CE521
:10332000049BCDF840909B1BDDF82090CDF8688081
:103330000A9FDDF82C800893FFF763B821461C46EE
:103340000B4601322C44072ACDE92B24C9E900356C
:103350007FF7EAA989E42AAA0699039802F0B4F84B
:1033600000287FF40CA82C9C0DF1B409FFF790B94C
:103370002AAA0699039802F0A7F800287EF4FFAF66
:103380000DF1B409FFF7BABB14463A461F4613467F
:103390002A460132089207F10802C7E9003A089B61
:1033A0002B935444072B2C943FF79AAE0133089388
:1033B00002F108091746ABE4059A1A605E46FFF76A
:1033C00002BA00BFB85B0008D45B0008109BCDF8C0
:1033D0002CB0F3180893149BCDF838804A460C960D
:1033E000C24FDDF86C90DDF86880DDF818B0564605
:1033F0002146DDF80CA0002B5ED00F9B002B5FD187
:10340000149B013B08F1FF3814932B9B1898106014
:1034100001334944072B2C91C2F804902B9353DCC1
:103420000832089898F80030851B9D42A8BF1D46B9
:10343000002D0BDD2B9B166001332944072B2C91AB
:1034400055602B934BDC98F800300832002DACBF50
:103450005D1B1D46002D2BDD102D2B981CDD10242F
:1034600004E0103D102D02F1080215DD013010318D
:103470000728CDE92B01C2E90074F2DD2AAA5946DA
:10348000504602F021F800287EF479AF103D102D4F
:10349000DDE92B012DAAE9DC013029440728CDE91B
:1034A0002B01C2E900753EF762AF98F80030083290
:1034B0001E44149B002BA0D10F9B002B00F0FB801F
:1034C0000F9B013B0F93A0E72AAA5946504601F0F3
:1034D000FBFF00287EF453AF2C992DAAA1E72AAA5E
:1034E0005946504601F0F0FF00287EF448AF98F8A6
:1034F00000302C992DAAA9E73046FCF781FFAA4697
:1035000003460890FFF7A6B998F800302C992DAA29
:103510001E44CEE709F1080936E614780993002520
:10352000FFF703B8059A1A805E46FFF74CB9147886
:10353000099100250122FEF747BF91F90040099249
:10354000E51720462946FEF792BF14780993002517
:10355000FEF737BF18F0010F3FF4E8A8FFF768BB8C
:1035600030238DF88C305823BAF1630F8DF88D30ED
:1035700048F0020400F3B68148F481730E9327F0FB
:10358000200304930022139B0A92A0463DAE002B19
:10359000C0F2E8809DED127B8DED1E7B00230B9326
:1035A000612F00F06081412F7FF4F8AC24A89DEDDD
:1035B0001E0B01F023FF00224FF07F5351EC100B44
:1035C000FDF748F900220023CDE90C01FDF7AAFB25
:1035D000002840F04382464B08930AF1FF34CDE9BE
:1035E0000F9B1197CDF850A0B1462196CDF8808061
:1035F000DDF820A0DDE90C6703E0FDF793FB20BBBD
:10360000A94600223B4B30463946FDF723F90F46C9
:103610000646FDF7CFFB8046FDF7B2F802460B46A3
:1036200030463946FCF75EFF4D461AF808C005F8EB
:1036300001CBB4F1FF3FA34606460F464FF0000210
:103640004FF0000304F1FF34D7D130463946002251
:10365000294B119FDDF850A0CDF844904446DDF889
:103660003C90DDF88080CDF83CB0219EDDF840B084
:10367000CDE90C01FDF77EFB002840F0AA80DDE9D2
:103680000C0100221C4BFDF74DFB18B12346DB0754
:1036900000F19F800F9B002B07DB0F9B01332B4416
:1036A000302205F8012BAB42FBD1AB1B40461093F7
:1036B000DDF8388098E4B246109B0C9ECDF8688007
:1036C000F3189A459146DDF82CB0DDF838800C46A9
:1036D00028BF9A465FE5119BDA1C01DB534514DDD8
:1036E000023F27F02003049388E400BFD45B000866
:1036F000A45B0008000030400000E03F2D228DF860
:103700008B204FF0000AFEF78BBE119B10998B4265
:10371000C0F29080C20740F1A681169A1344089324
:10372000470503D5119B002B00F3EF80089B23EA8C
:10373000E3730493672700230F9314939EE42D22D1
:103740008DF88B20FFF71AB92AAA0699039801F081
:10375000BBFE00287EF413AE2C9C0DF1B409FFF7DC
:1037600037BB0A90DDE9121202F100431F932D23AB
:103770001E910B9314E730238DF88C307823F3E6F9
:10378000CDF810A0CDF820A0099482460F90149097
:1037900011909DF88B20FEF740BE2AAA0699039847
:1037A00001F092FE00287EF4EAAD249BDDE92B2493
:1037B0000DF1B409FFF74CBA2AAA0699039801F053
:1037C00083FE00287EF4DBAD249B2C9C0DF1B40914
:1037D000E8E4119B2893089B15F8012CD97B9142B2
:1037E0002B4609D1302003F8010C289B5A1E289241
:1037F00013F8012C9142F6D0392A0BBF089A0132F6
:10380000927AD2B203F8012C4FE7119B002B40F3C0
:103810005281119BBAF1000F40F0EB80C40700F118
:10382000E88008936627430570D4089B23EAE37376
:10383000049380E7109B169A13440893119B002B66
:1038400040F348816727EEE72AAA0699039801F01A
:103850003BFE00287EF493AD249B109A2C9CD31A37
:103860000DF1B409B6E424A89DED1E0B01F0C6FDD0
:1038700000224FF07F5351EC100BFCF7EBFF0022BE
:103880000023CDE90C01FDF74DFA08B10123249383
:10389000BA4B0893A1E65D421033B94B80F29A808F
:1038A000194610272346DDF80CA00C4605E009F167
:1038B0000809103D102D40F38A8001321033072A89
:1038C000CDE92B23C9E90047F1DD2AAA0699504624
:1038D00001F0FAFD00287EF452ADDDE92B230DF155
:1038E000B409E6E70AF101010398FEF71FF906465D
:1038F000002800F04F8148F481730E9327F02003D5
:103900000493A046139B0A9041E667271A98002269
:103910000F9214920378119AFF2B0CD093420ADA7B
:103920004178D21AB1B1149B013314930B46FF2B8B
:1039300000F10100F2D11192149B0F9A08991A908C
:1039400013441B9A02FB0313089323EAE3730493C3
:10395000FFF794BB0F9901310F91DDE728AA25AB42
:10396000CDE90032032124AB52469DED1E0B039896
:1039700000F0BAF95546064600EB0A043378302BBE
:1039800000F0C980249D2C4400220023DDE91E01A3
:10399000FDF7C8F910B12346FFF721BB289BA342CE
:1039A000BFF41DAB30215A1C28921970289B9C42F1
:1039B000F9D8FFF714BBBAF1000F00F086800A9027
:1039C000E5E50A904FF0060AE1E57419DCE72146C7
:1039D0001C460B4601322C44072ACDE92B24C9E9A9
:1039E000003500F3B08009F10809FFF734B99946B2
:1039F00044E4169A134453440893662713E70DF1E1
:103A0000A70C64465F4D00E01446A5FB0312D208E4
:103A100002EB8201A3EB410303F130011346092BB2
:103A200004F8011C04F1FF32EEDC3033023CDBB25F
:103A3000A44502F8013C40F294800DF19A0411462D
:103A400001E011F8013B04F8013B8C45F9D12AABA8
:103A50009B1A0DF19A021344FFF7F7BA012324933E
:103A6000494B0893B9E5119B089359E628AA25AB61
:103A7000CDE90032032124AB52469DED1E0B039885
:103A800000F032F955460646462F06EB05043FF492
:103A900075AF79E7139B3D4E002BB6BF2D229DF8E5
:103AA0008B208DF88B203A4BFEF76ABFC5077FF558
:103AB000D9AAFFF7D3BABAF1000F17D1C10715D4AD
:103AC000012304930893662735E6CDF828A04FF02C
:103AD000010A5CE5089AC3F101031A4422EAE27381
:103AE00008920493672726E64A4656E4169B01335C
:103AF0005344089323EAE373049366271BE6472F96
:103B00007FF463AF18F0010F3FF468AABCE70DF132
:103B10009A02FFF797BA00220023DDE91E01FDF7A4
:103B200001F900287FF42EAFC5F1010524952AE79D
:103B300009999BF801700B6843EAE37A0B1D9346E1
:103B40000993FEF7A2BB2AAA0699039801F0BCFCD0
:103B500000287EF414ACDDE92B240DF1B409FFF745
:103B60007AB80DF19A03FFF770BA039A0C23136029
:103B70004FF0FF330593FEF711BC00BF905B0008C8
:103B8000D45B0008CDCCCCCCA45B00088C5B0008D7
:103B9000885B0008069A938943F040039381FEF7FF
:103BA000F6BB00BF024B13B1024800F005B87047E6
:103BB00000000000094B0008002301461A46184681
:103BC00001F0FCBC2DE9F04F03690F69BB4283B0E3
:103BD000C0F28680013F01F1140900F1140A59F87E
:103BE00027205AF82730BC000132B3FBF2F80AEB69
:103BF0000403009409EB040B0193B8F1000F38D0D3
:103C000000252E46CE46D4465EF8044BDCF8003044
:103C1000A2B208FB0255220C2C0C08FB0242ADB2EA
:103C2000751B96B2C6EB134615FA83F306EB2346D3
:103C30009BB243EA0643F3454FEA12454CF8043B76
:103C40004FEA2646E0D2009B5AF803308BB9019A1E
:103C5000131F9A450CD252F8043C4BB9A2F1080349
:103C600002E01A68043B1AB99A4507F1FF37F8D306
:103C70000761044601F0CEFA00282DDB08F10108A7
:103C80005546002359F8041B28688AB29A1A0B0C6F
:103C900012FA80F2C3EB104303EB224392B242EAE2
:103CA0000342CB4545F8042B4FEA2343EAD25AF8A6
:103CB00027200AEB87037AB91A1F92450BD253F8D3
:103CC000042C42B9083B02E01A68043B1AB99A4531
:103CD00007F1FF37F8D32761404603B0BDE8F08F06
:103CE000002003B0BDE8F08F2DE9F04F55EC104BEC
:103CF0009BB0066C0291814607920593CDE9004581
:103D000056B1426C726001239340B360314601F0BA
:103D100091F80023C9F84030B5F10008249AB4BFE7
:103D2000012300231360764BBCBF28F00048CDF878
:103D3000048033EA080300F0A680DDE90067002272
:103D4000002330463946FCF7EDFF054678B1059A69
:103D500001231360259B002B00F0C080694B259A3E
:103D600003F1FF3B136058461BB0BDE8F08F18AA63
:103D700019A947EC106B484601F0DEFA5FEA1854C7
:103D8000824640F0A080DDE918542C4404F232430E
:103D9000202B40F32C84C3F1400308FA03F8009B66
:103DA00004F2124023FA00F048EA0000FCF7D8FCC5
:103DB00001230646013CA1F1F8770F9330463946BE
:103DC0000022514BFCF78EFB47A3D3E90023FCF7FD
:103DD00041FD47A3D3E90023FCF786FB06462046B6
:103DE0000F46FCF7CDFC44A3D3E90023FCF732FDDA
:103DF00002460B4630463946FCF776FB06460F4630
:103E0000FCF7D8FF00220690002330463946FCF725
:103E100093FF002840F07382069E162E00F25D820A
:103E20003A4B03EBC603D3E90001DDE90023FCF7BD
:103E3000A1FF002800F0D783731E069300230D9383
:103E40002C1BB4F1010800F1548200230893069B57
:103E5000002BC0F2458298440C9300230B93029BE5
:103E6000092B5BD8052B40F3C083043B029300254C
:103E7000029B023B032B00F29884DFE813F0DF0380
:103E8000BF03E803F504059A42F20F731360009B29
:103E900083B9C8F313036BB9259BDFF874B0002B0B
:103EA0003FF461AF0BF10803259A584613601BB02D
:103EB000BDE8F08F259BDFF85CB0002B3FF453AFDB
:103EC0000BF10303F0E7C7F3130343F07F570F959C
:103ED000A4F2FF3447F44017189D6FE7DFF838B0BD
:103EE00058461BB0BDE8F08F61436F63A787D23F90
:103EF000B3C8608B288AC63FFB799F501344D33FD9
:103F00000000F07FC15B00080000F83F205C000863
:103F1000E45B0008F05B0008C05B00084FF0FF3472
:103F20000125CDE909450023029307930021C9F833
:103F300044100E94484600F057FF0E2C8346C9F8F3
:103F4000400000F2FB80002D00F0F8809DED007B2A
:103F5000069900298DED107B40F3E5839D4B01F020
:103F60000F0203EBC20393ED007B0C11E2068DED13
:103F7000007B40F19E84984BDDE91001D3E90823D2
:103F8000FCF792FDCDE9120104F00F0403267CB189
:103F9000DDE90001904DE30704D5D5E90023FCF7E6
:103FA00059FC0136641005F10805F4D1CDE9000192
:103FB000DDE90023DDE91201FCF776FDCDE9000122
:103FC0000D9B43B10022854BDDE90001FCF7B4FEF7
:103FD000002840F0FF843046FCF7D2FBDDE90023E7
:103FE000FCF738FC7E4B0022FCF77EFA099B064664
:103FF000A1F15077002B00F01C84069B1693099BBF
:104000001293DDE90001FCF7D5FE129A714B03EB28
:10401000C20313ED027B00F130058DED147BFCF73C
:10402000AFFB0B460246DDE90001CDE90067FCF776
:1040300059FA0A9BEDB206460F460BF10104002B1C
:1040400000F05884DDE9142300206649FCF72CFDBC
:10405000DDE90023FCF746FA8BF8005032463B4678
:10406000CDE90001FCF786FE002840F002853246CB
:104070003B4600205949FCF735FA02460B46DDE97C
:104080000001FCF777FE002840F0FB84129A012A19
:1040900050D05A44CDF85C80CDF848A0CDF850B04F
:1040A0009246CB46DDE900890CE000204B49FCF745
:1040B00019FA42464B46FCF73FFE002840F0DC84EC
:1040C000544530D0404649460022474BFCF7C2FBDE
:1040D0000022454B8046894630463946FCF7BAFBFC
:1040E0000F460646FCF766FE0546FCF749FB02460E
:1040F0000B4630463946FCF7F5F93035EDB242460D
:104100004B4604F8015B06460F46FCF715FE3246A7
:104110003B460028C9D0169BDDF848A00693D94637
:10412000DDF850B036E2D946DDF85C80DDF848A015
:10413000DDF850B0DDE91034CDE90034199B002BD7
:10414000C0F2AE80069A0E2A00F3AA80214B03EB40
:10415000C20393ED007B079B002B8DED027BC0F229
:10416000BE82DDE90067DDE9022330463946FCF70F
:104170009BFCFCF71FFE0546FCF702FBDDE9022372
:10418000FCF768FB0B46024639463046FCF7AAF9B5
:1041900005F130038BF80030099B012B06460F46D2
:1041A0000BF1010453D000220F4BFCF753FB00220C
:1041B000002306460F46FCF7B5FD002840F0EA81D3
:1041C000CDF800A0CDF81C90DDF82480DDE9029A3E
:1041D00017E000BF205C0008F85B00080000F03F1B
:1041E00000001C400000E03F00002440FCF732FBD0
:1041F0000022002306460F46FCF794FD002840F0FD
:104200003D834A46534630463946FCF74DFCFCF7A1
:10421000D1FD0546FCF7B4FA4A465346FCF71AFBB3
:1042200002460B4630463946FCF75CF905F1300C86
:1042300004F801CBA4EB0B0CE04506460F464FF00B
:104240000002C14BD2D1DDF800A0DDF81C9032464F
:104250003B4630463946FCF747F9DDE9022306467E
:104260000F46FCF787FD58B9DDE902233046394691
:10427000FCF758FD002800F08D81E90740F18A81A4
:1042800014F8015C05E09B4500F0738313F8015CB2
:104290001C46392D04F1FF33F5D001351D7079E14D
:1042A0000A9A002A3BD0029A012A40F30B82099B0A
:1042B0005F1E0B9BBB42C0F2E682DF1B099B002BFB
:1042C000C0F20B83089A14461A44984408920121BC
:1042D000484600F049FE054624E001230D93AFE572
:1042E000089A069BD21A5B420B93002308920C9308
:1042F000B5E5C4F1010308934FF00008A7E5DDF828
:1043000018804046FCF73CFA32463B46FCF70AFD73
:1043100000287FF481AD08F1FF3306937CE50B9F05
:10432000089C0A9D002C0CDDB8F1000F09DD444506
:10433000089A2346A8BF4346D21A0892E41AA8EB6B
:1043400003080B9B6BB10A9A002A00F09082DE1BD7
:10435000002F40F09B8151463246484600F0B4FEA3
:1043600082460121484600F0FFFD0C9A0646002ACD
:1043700040F02581029B012B40F36C8101204044D9
:1043800010F01F0000F01981C0F12003042B40F34E
:10439000AC83C0F11C00089B034408930444804490
:1043A000089B002B05DD51461A46484600F0DCFE0E
:1043B0008246B8F1000F05DD31464246484600F01E
:1043C000D3FE06460D9B002B77D1099B002B40F3B3
:1043D00009820A9B002B00F08980002C00F36B817E
:1043E0000C9B002B40F0CD81A846009ACDF82CB054
:1043F00002F001020A92099A0BF1FF331A445F4658
:104400000992B34659465046FFF7DCFB294604465D
:10441000504600F0FFFE594606464246484600F028
:1044200015FF04F130030093C3680146002B40F0F0
:10443000D4810890504600F0EDFE089A079011468E
:10444000484600F0F7FC079B33B9029A22B90A9B51
:10445000002B00F01983029B002EC0F21C8205D1B4
:10446000029A1AB90A9A002A00F01582002B07F165
:10447000010400F32582009B3B70099BBB4200F0C6
:104480003082514600230A22484600F0DDFC4545B3
:10449000824629464FF000034FF00A02484600F0DA
:1044A000968100F0D1FC4146054600230A22484689
:1044B00000F0CAFC27468046A4E73146504600F08B
:1044C000A9FE002881DA069F514600230A224846A9
:1044D000013F069700F0B8FC0A9B8246002B40F093
:1044E000EB820E9B002B40F3F38209935C46DDF8D0
:1044F000248002E000F0A8FC824631465046FFF7D7
:1045000061FB00F1300704F8017BA4EB0B03984535
:104510004FF00A024FF0000351464846EADC002300
:104520000097029351460122484600F01DFE314695
:10453000824600F06FFE002814F8012C14DC08D12C
:10454000009BDB0710D404E00000244014F8022C88
:104550001C46302A04F1FF33F8D00BE09B4500F0F5
:104560004E8113F8012C1C46392A04F1FF33F5D093
:1045700001321A703146484600F05CFC55B1029990
:1045800021B1A94202D0484600F054FC29464846D1
:1045900000F050FC5146484600F04CFC0022069BBF
:1045A0002270059A01331360259B002B3FF4DBAB8F
:1045B00058461C601BB0BDE8F08F1C20EBE601469E
:1045C000484600F081FD029B012B064640F3D48053
:1045D00000230C93336906EB8303186900F074FC25
:1045E000C0F12000CBE60D902AE4012540E4C3F1A0
:1045F0002008009B03FA08F0FFF7D8BB00230A93BA
:10460000DDE9063213440E930133012B1E46099354
:10461000B8BF01260021172EC9F84410099C7FF766
:1046200089AC012204235B0003F11400B04211465F
:1046300002F10102F7D9C9F844107BE400230A9380
:10464000079E002E40F3E2800E960996E2E70123D2
:104650000A93F5E7009B002B7FF490AEDDE9001292
:10466000C2F31303002B40F0928122F000431B0D94
:104670001B052BB1089B0133089308F101080123A6
:104680000C9A0C93002A3FF479AEA3E73A462946E8
:10469000484600F019FD524601460546484600F0DE
:1046A0006DFC51460746484600F0C4FBBA46002E52
:1046B0003FF457AE4FE629462246484600F054FDE7
:1046C00005468DE60F9A002A00F05D8103F2334320
:1046D000089A0B9F14461A4498440892F7E5099BE0
:1046E000002B3FF73EAD40F0BC8051EC170B002291
:1046F000B24BFCF7AFF8DDE90023FCF731FB099E74
:104700003546002876D1069A3123013206928BF87D
:1047100000300BF101043146484600F08BFB002DC0
:104720007FF434AF36E700F04281069B5C42A44B35
:1047300004F00F0203EBC203D3E90023DDE910010B
:10474000FCF788F82411CDE9000100F0C6819D4DE9
:1047500000230226E70705D5D5E90023FCF77AF800
:1047600001360123641005F10805F3D1002B3FF455
:1047700027ACCDE9000123E4009B002B3FF46EAF92
:1047800026E76968484600F02FFB2B6902339A0040
:10479000044605F10C010C30FBF782FD2146012295
:1047A000484600F0E1FC80461FE60024C9F844407A
:1047B0002146484600F018FB4FF0FF330E93099353
:1047C000012383460794C9F840000A93B6E400F039
:1047D0003BFB27460546804614E6484600F02AFB88
:1047E000012339E6029B022B7FF7F3AD099B002BD7
:1047F00000F0CF80079BDB4306935C468BE7069A6D
:104800003123013206928BF80030B3E6012409947B
:104810000794FFF78BBB3046FBF7B2FFDDE90023BF
:10482000FCF718F80022684BFBF75EFE0646A1F184
:1048300050770022614BDDE90001FBF753FE324661
:104840003B4604460D46FCF795FA00284FD1324608
:1048500007F1004320462946FCF76EFA00283FF492
:1048600069AC00263546C5E701230A93C8E65146E0
:104870000B9A484600F028FC824672E5DDF800A05D
:10488000DDF81C9086E60B9B0C9AFB1A1A44CDE9C6
:104890000B72002712E5002B02945E4607F101041B
:1048A000DDF82CB000F3BA80009B02953B704546C2
:1048B00060E69DED107B02268DED127BFFF767BB56
:1048C000009B392B5E46DDF82CB000F0B980009BD0
:1048D000029501333B7045464CE6DDE908329C1AEF
:1048E000F5E45E460295DDF82CB045461AE6002652
:1048F000354608E7DDE91423DDE90001FBF7AAFFEF
:10490000129B8BF80050012BCDE9000120D0129BA7
:10491000CDF848805B44984600222C4B30463946FF
:10492000FBF798FF0F460646FCF744FA0546FBF7EF
:1049300027FF303502460B4630463946FBF7D2FD9D
:1049400004F8015B444506460F46E5D1DDF8488092
:104950001F4B0022DDE90001FBF7C6FD32463B4656
:10496000FCF7EAF9002870D0169B069314F8015C56
:104970008FE430238BF80030069B14F8015C013380
:1049800006935B4689E4189BC3F13603A0E6002337
:1049900076E631460522484600F056FA01460646BC
:1049A000504600F037FC00283FF7ADAE22E79DED02
:1049B000107B02268DED007BFFF702BB0000144048
:1049C000205C0008F85B000800001C400000244048
:1049D0000000E03F099B002B3FF41DAF0E9C002C14
:1049E0007FF7A8AB0022454BDDE90001FBF732FF62
:1049F000CDE90001701CFBF7C3FEDDE90023FBF7E6
:104A000029FF3F4B0022FBF76FFD069B1294013BF1
:104A10000646A1F150771693FFF7F3BA51460122EB
:104A2000484600F0A1FB3146824600F0F3FB002827
:104A30003BDD009B392B03D0029B3133009333E7DE
:104A4000392202953A7045468EE5DDE900230020C3
:104A50002C49FBF747FD32463B46FCF78BF910B972
:104A6000FFF768BB144614F8013C302B04F1FF3209
:104A7000F8D0169B06938DE5D946DDF848A0DDF801
:104A800050B0169B069304E4009B392B2146324616
:104A900007F101045E46DDF82CB0D1D0002A7FF783
:104AA00003AF0B4631330093FEE67FF4FDAE009B6F
:104AB000DA077FF5F9AEBCE7294600230A2248460B
:104AC00000F0C2F90E9B002B054609DD099384E432
:104AD000029B022B0EDC0E9B07E50226FFF770BA45
:104AE000029B022B06DC0E9BF0E73FF459ACC0F1B1
:104AF0003C0050E40E9B099378E600BF0000244080
:104B000000001C400000E03F38B50A4C0A4D641B11
:104B1000A4100AD004F18043013B05EB8305013C5E
:104B200055F804399847002CF9D1BDE8384001F018
:104B300015B800BF1C5E0008185E0008F8B5244FC9
:104B40000C460646FDF7E0FABB685D68C4F57E6179
:104B50000F3125F00305294421F47F6121F00F0175
:104B6000A1F58054B4F5805F07DB00213046FDF7E6
:104B7000D7FABB682B44984204D03046FDF7CAFAF6
:104B80000020F8BD61423046FDF7CAFA01300DD071
:104B9000104BBA6819682D1B45F001053046091BFA
:104BA00055601960FDF7B6FA0120F8BD00213046C6
:104BB000FDF7B6FABA68831A0F2BDEDD064C0549FD
:104BC000246843F00103001B53600860D5E700BF71
:104BD00040040020E409002048080020002953D0A8
:104BE000F8B50C460646FDF78FFA54F804CC714F21
:104BF0002CF00101A4F108056B18B8685A689842B6
:104C000022F0030253D01CF0010F5A6003EB0200A4
:104C10003BD154F808CC4068A5EB0C0507F1080E11
:104C2000AC687445614400F0010075D0D5F80CC043
:104C3000C4F80CC0CCF8084060B341F001036B60CD
:104C40006950B1F5007F50D34B0A042B70D88B0903
:104C500003F13904E40003F1380238193B590838EC
:104C6000984278D05A6822F003028A4271D99B6830
:104C70009842F7D1C368C5E902039D60C56030461C
:104C8000BDE8F840FDF746BA7047406800F0010003
:104C90000028D2D19868484C1144A04241F001024A
:104CA00062D0DB68C36098606A606950C9E71CF035
:104CB000010F0A4407D154F8083CED1A1A44D5E90B
:104CC0000213CB6099603D4B1B6842F00101934297
:104CD0006960BD6004D83A4B30461968FFF72EFF73
:104CE0003046BDE8F840FDF715BAC90878684A1C97
:104CF000012389108B40034307EBC20157F83200B0
:104D00007B600839C5E9020147F83250C56030467A
:104D1000BDE8F840FDF7FEB9002845D10A44D3E9C3
:104D2000021342F00100CB6099606860AA50D7E797
:104D3000142B08D9542B1ED80B0B03F16F04E4007D
:104D400003F16E0289E703F15C04E40003F15B0206
:104D500083E718468EE793107968012202FA03F37D
:104D60000B437B60034686E7C7E90455C5E90200AB
:104D70006A606950B4E7B3F5AA7F06D8CB0B03F19C
:104D80007804E40003F1770267E740F2545293425B
:104D900006D88B0C03F17D04E40003F17C025CE790
:104DA0004FF47E747E2258E741F001026A60196078
:104DB00096E700BF40040020480400204C08002073
:104DC000140A0020044A054B1268506B002808BFE3
:104DD0001846F030704700BF14000020540800202F
:104DE000704700BF704700BFC36C70B505460C46E6
:104DF0004BB153F8240080B1026843F8242000230B
:104E0000C0E9033370BD2122042100F037FC0346C2
:104E1000E8640028EDD1002070BD012101FA04F6FC
:104E2000721D2846920000F029FC0028F3D0C0E94A
:104E30000146E4E731B1C36C4A6853F822000860C8
:104E400043F82210704700BFF0B50C6983B00D46DF
:104E5000064601F1140C0027DCF8000081B202FBC9
:104E60000133010C180C02FB01019BB2013703EB6B
:104E70000143BC424CF8043B4FEA1143ECDC3BB12C
:104E8000AA68A24207DD05EB8402013453612C615C
:104E9000284603B0F0BD6968019301313046FFF741
:104EA000A3FF2A69023205F10C01074692000C307B
:104EB000FBF7F6F9F26C6968019B52F82100286053
:104EC00042F821503D46DEE7020C12040346C2B907
:104ED0000304102013F07F4F04BF1B02083013F0AF
:104EE000704F04BF1B01043013F0404F04BF9B0000
:104EF0000230002B04DB5B0001D50130704720201D
:104F000070470020E6E700BF036813F00702014680
:104F100007D0DA071FD498071FD55B080B60012064
:104F2000704798B2A0B1104613F0FF0F04BF1B0AE0
:104F300008301A0704BF1B0904309A0704BF9B08F6
:104F40000230DA0702D45B080BD001300B607047E7
:104F50001B0C1020E8E7002070479B080B60022024
:104F600070472020704700BF10B50C460121FFF7A5
:104F70003BFF0122C0E9042410BD00BF2DE9F04F22
:104F80000E691469A64283B00F46154604DA32460C
:104F90002F4626460D461446D7E9011306EB0408B2
:104FA0004345B8BF0131FFF71FFF00F1140909EBBA
:104FB000880EF145009005D24B46002243F8042BA1
:104FC0009E45FBD805F1140A0AEB840407F114038B
:104FD000A24503EB860C61D2641B153C24F003044C
:104FE000CDF804E0A24405F110029E4605E02D0C28
:104FF0002BD1924509F104094ED052F8045F1FFAF3
:1050000085FBBBF1000FF2D077464E46002000E052
:10501000264657F8041B34688BB2A5B2090C240C41
:105020000BFB035303440BFB014000EB13403446DE
:105030009BB243EA0043BC454FEA104044F8043BAE
:10504000E6D8706015682D0CD3D0D9F800307646BC
:105050001846CB46002100E0A3463488000C05FB2F
:10506000040001449BB25C4643EA014344F8043B1C
:1050700056F8043BDBF804001B0C87B205FB0373F6
:1050800003EB1143B4454FEA1341E5D89245CBF801
:10509000043009F10409B0D1DDF804E0B8F1000FE3
:1050A0000BDD5EF8043CAEF1040E1BB105E05EF8CA
:1050B000043D13B9B8F10108F9D10098C0F8108087
:1050C00003B0BDE8F08F00BF12F003032DE9F041FB
:1050D000144607462ED10D46A4101CD0BE6C96B3C4
:1050E000E3074FF0000806D4641014D03068A8B16C
:1050F0000646E307F8D5324629463846FFF73EFF15
:10510000B5B16A68FB6C641053F82210296043F84B
:1051100022500546EAD12846BDE8F08132463146A4
:105120003846FFF72BFF3060C0F800800646E0E706
:105130000546D9E7013B0B4A52F823200023FFF72D
:1051400083FE0546C8E701213846FFF74DFE40F2D1
:10515000712343610122002302610646B8640360A3
:10516000BEE700BFE85C00082DE9F04791460A69F8
:105170000E464FEA6914D1E9011304EB020808F165
:1051800001059D42074604DD5B009D4201F10101DE
:10519000FADC3846FFF728FE002C00F1140337DD57
:1051A00003EB8401002243F8042B8B42FBD13469CA
:1051B00006F1140319F01F0903EB840C20D0C9F188
:1051C000200E002200E051461C688A4604FA09F4C9
:1051D00014434AF8044B53F8042B634522FA0EF2A9
:1051E000F1D34A600AB108F10205FB6C7268013D17
:1051F00053F822100561316043F82260BDE8F08762
:10520000043953F8042B41F8042F9C45F9D8ECE7F6
:105210001946CCE730B40B6905460069C01A0FD1B6
:105220009B001435143119442B4401E09D4207D2F0
:1052300053F8044D51F8042D9442F7D002D30120C5
:1052400030BC70474FF0FF30FAE700BF2DE9F04166
:1052500013690D69ED1A002D0E46904601F11404F4
:1052600002F1140714D19B00E2183B4401E0A24272
:1052700059D952F804CD53F8041D8C45F7D009D202
:10528000224633463C46464617469846012501E0ED
:10529000F6DB00257168FFF7A7FDD8F810303669F6
:1052A000C56007EB830EBC4600F1140504EB8607CE
:1052B00000235CF8041B54F8048B8AB213FA88F3B9
:1052C000090C9A1AC1EB184303EB224392B242EA4B
:1052D0000342E64545F8042B4FEA2343E9D8A742A9
:1052E00017D9AE46A4465CF8042B13FA82F31914BE
:1052F00001EB12419BB243EA014267454EF8042B91
:105300004FEA2143EFD8E443274427F0030704374B
:105310003D44043D22B955F8043D013E002BFAD02E
:105320000661BDE8F0810021FFF75EFD0122002348
:10533000C0E90423BDE8F0812DE9F0430F4683B0B6
:10534000012155EC104B1646FFF74EFDC5F30A58E8
:105350008146C5F31303B8F1000F01D043F4801365
:10536000002C019324D002A840F8084DFFF7CCFD93
:10537000002836D1DDE90023C9F81420002B0CBF2A
:1053800001210221C9F81830C9F81010B8F1000F36
:105390001BD109EB8103A0F2324038601869FFF796
:1053A00093FDC0EB41103060484603B0BDE8F08388
:1053B00001A8FFF7A9FD019BC9F814300121203095
:1053C000C9F81010B8F1000FE3D0A8F2334808EB89
:1053D0000003C0F135003B603060484603B0BDE8D3
:1053E000F083DDE90013C0F1200203FA02F20A4360
:1053F000C3400193C9F81420C0E700BF53EC102B41
:1054000070B5164E23F000410025B14204460560F8
:1054100021DC10EE106A0E431DD0B1F5801F184636
:105420000CDA1946002210EE100A0D4BFBF712FAA7
:105430006FF035050246084621F0004120F0FF409C
:10544000091520F4E000A1F2FE3140F07F53294419
:1054500043F40013216043EC102B70BDFFFFEF7F7E
:105460000000504340EA01039B0770B42AD1032A8D
:1054700028D90C460346214654F8046BA6F10135A1
:1054800025EA060515F0803F06D1043A032A43F8C1
:10549000046B2146EFD89AB10C781C70013A0133A5
:1054A0003CB16AB111F8014F03F8014B013A002CED
:1054B000F7D12AB11A44002103F8011B9342FBD112
:1054C00070BC70470346E6E72DE9F04F936883B060
:1054D0009046002B6CD017688D6882460C46086891
:1054E000083742E0A38913F4906F2DD0D4E9041556
:1054F00005EB4505A0EB010B05EBD575701C6D1098
:105500005844A8422A4684BF05462A465B0536D53C
:1055100011465046FCF70AFB00283AD05A4621694A
:105520000190FAF7BDFEA289019B22F4906242F03D
:105530008002A281A5EB0B0203EB0B0065612361E6
:105540002060A2603546B3465A46494600F0E0F86E
:10555000D8F80830A2682068551B58449E1BA560E7
:105560002060C8F808601EB3083757E90296AB46BA
:10557000002EF9D0AE42B5D23546B346E4E75046E8
:1055800000F02AF903460028D4D121695046FFF7DC
:1055900025FB0C23CAF80030A389002243F0400306
:1055A0004FF0FF30A381C8E9012203B0BDE8F08FBE
:1055B0000020C8F8040003B0BDE8F08F2DE9F843DF
:1055C0002B4D0646286898460F469146FFF708FC83
:1055D000284B1C68D4F84831002B3DD05A681F2A4C
:1055E0000DDC02F1010C16BB0232C3F804C02868BE
:1055F00043F82270FFF7F6FB0020BDE8F8831E4B4E
:105600007BB34FF4C870FCF789FA034648B3D4F86B
:1056100048210021C0E900214FF0010CC4F84801E5
:105620000A46C0F88811C0F88C11002EDCD003EBBC
:1056300082010124C1F88890D3F888019440204366
:10564000022EC3F88801C1F80881CDD1D3F88C119E
:105650000C43C3F88C41C7E704F5A673C4F848317E
:10566000BCE72868FFF7BEFB4FF0FF30C5E700BF7F
:10567000500800207C5B00081D1B000810B502FBD1
:1056800001F1FCF753FA0446D8B150F8042C22F08B
:105690000302043A242A1DD8132A14D900231B2AF2
:1056A000C0E900331BD9242AC0E902330ABFC0E98C
:1056B000043300F1100200F118020023C2E90033A4
:1056C0009360204610BD02460023C2E90033936078
:1056D000204610BD0021FCF7CDFC204610BD00F196
:1056E0000802F1E782B049B15AB16BB113780B608F
:1056F0001278101C18BF012002B0704701A9002ABF
:10570000F3D1104602B070476FF00100F4E700BF1C
:105710008842F0B40DD98B1883420AD9841832B16B
:10572000224613F8014D02F8014D9942F9D1F0BC1F
:1057300070470F2A49D940EA01039B0747D1A2F1DC
:1057400010031B0901F1200707EB031701F11004F7
:1057500000F1100554F8106C45F8106C54F80C6CFE
:1057600045F80C6C54F8086C45F8086C54F8046C57
:1057700045F8046C1034BC4205F11005EAD1013340
:1057800002F00F051B01032D1944034421D91F1FEB
:105790000E462C46043C56F804CB47F804CF032CA5
:1057A000F8D82C1F24F0030404342344214402F0CD
:1057B0000302002ABBD0013B0A4411F8014B03F855
:1057C000014F9142F9D1F0BC70470346F1E703461F
:1057D000F1E72A46EDE700BF2DE9F04F924683B08E
:1057E000002900F0A1800D4680460AF10B04FCF769
:1057F0008BFC55F8042C162C22F00306A5F10807A3
:105800003ED810242146A2453FD88E4207EB060918
:1058100074DAC74B9868484500F0AA80D9F80400AC
:1058200020F001034B445B68DB0740F18380D20723
:1058300034D551464046FCF779F98246E0B155F837
:10584000043C23F001033B44A0F10802934200F022
:10585000F980321F242A00F20781132A296800F2F6
:10586000E68003462A4619605168596092689A603A
:1058700029464046FFF7B2F94046FCF74BFC4FE0A3
:1058800024F00704002C2146BDDA4FF0000A0C2357
:105890005046C8F8003003B0BDE8F08F55F8083C1A
:1058A000A7EB030BDBF8042022F00302B3188B42B2
:1058B000BFDBDA46DBF80C105AF8080F321F242A37
:1058C000C1600BEB0309886000F2C680132A2968C7
:1058D00040F2C080CBF808106968CBF80C101B2A86
:1058E000A96800F2D8800BF11002083511606968D0
:1058F0005160A96891601E465F4655467B68321B21
:105900000F2A03F0010322D833437B60D9F8043017
:1059100043F00103C9F804304046FCF7FBFBAA46FC
:10592000504603B0BDE8F08F114603B0BDE8F04F1C
:10593000FCF7FCB820F0030033188B4261DBD9E997
:1059400002121E46CA6007EB03099160D6E73919B7
:10595000234342F001027B604A60D9F8043043F0EF
:1059600001030831C9F804304046FFF737F9D3E79F
:10597000406820F00309B14404F11000814577DA52
:10598000D2073FF556AF55F8082CA7EB020BDBF812
:10599000042022F003029144484587DCDA46DBF814
:1059A0000C105AF8080F321F242AC160886000F2D8
:1059B000A180132A296840F29B80CBF808106968FF
:1059C000CBF80C101B2AA96800F29B800BF1100287
:1059D0000835116069685160A96891600BEB04019A
:1059E000A9EB040242F0010299604A60DBF804303E
:1059F00003F001031C434046CBF80440FCF78AFB4C
:105A00008EE7D3073FF515AF55F8083CA7EB030B1E
:105A1000DBF8042022F00302104483198B42FFF6C6
:105A200045AFD9E90212DA46CA60916042E70160E7
:105A30006B6843601B2A3AD805F1080200F108039D
:105A4000A96810E750F8043C23F003031E4407EB59
:105A5000060953E7524649E7294650461E465F4627
:105A6000FFF756FE554649E72946FFF751FEFFE688
:105A70002744A9EB040949F001029F607A6055F8B8
:105A8000043C03F001031C43404645F8044CFCF77A
:105A900041FBAA4644E7CBF81010E968CBF8141094
:105AA000242A10D029690BF1180210351EE7AB68C3
:105AB0008360EB68C360242A10D005F1100200F166
:105AC00010032969CFE62A69CBF818206A69CBF858
:105AD0001C20A9690BF12002183507E72B69036127
:105AE0006B694361A96905F1180200F11803BAE670
:105AF00052466EE7294650460193FFF709FE019B87
